:020000040800F2
:1000000000000220B12D0008D1210008D9210008EC
:10001000E1210008E9210008F121000800000000AA
:10002000000000000000000000000000F9210008AE
:100030000722000800000000152200082322000803
:10004000012E0008012E0008012E0008012E0008D4
:10005000012E0008012E0008012E0008012E0008C4
:10006000012E0008012E0008012E0008012E0008B4
:10007000012E0008012E0008012E0008012E0008A4
:10008000012E0008012E000835220008012E00086C
:10009000012E0008012E0008012E0008012E000884
:1000A000012E0008012E0008012E0008012E000874
:1000B00049220008012E00085D220008012E0008D8
:1000C000012E0008012E0008012E0008012E000854
:1000D000012E0008012E000871220008012E0008E0
:1000E00085220008012E0008012E0008012E0008BC
:1000F0009D220008012E0008012E0008012E000894
:10010000012E0008012E0008B9220008012E000867
:10011000012E0008012E0008012E0008012E000803
:10012000CD220008012E0008012E0008012E000833
:10013000012E00080000000000000000012E000851
:10014000012E0008012E0008012E0008012E0008D3
:10015000012E0008012E0008012E0008012E0008C3
:10016000012E0008012E0008012E0008012E0008B3
:10017000012E0008012E0008000000000000000011
:08018000012E0008012E000809
:1001900010B5054C237833B9044B13B10448AFF3C1
:1001A00000800123237010BDD40100200000000056
:1001B00078AB000808B5034B1BB103490348AFF304
:1001C000008008BD00000000D801002078AB0008C6
:1001D00001F0FF01102A2BDB10F0070F08D010F8F8
:1001E000013B013A8B422DD010F0070F42B3F6D1FC
:1001F000F0B441EA012141EA014122F007047FF015
:1002000000070023F0E80256083C85EA010586EA6B
:10021000010685FA47F5A3FA87F586FA47F6A5FAA7
:1002200087F68EB9EED1F0BC01F0FF0102F00702B3
:1002300032B110F8013B013A83EA010313B1F8D15E
:100240000020704701387047002D06BF354603383F
:10025000073815F0010F07D1013015F4807F02BF78
:10026000013015F4C03F0130F0BC0138704700BFC9
:10027000034613F8012B002AFBD1181A01387047E6
:1002800081F0004102E000BF83F0004330B54FEA47
:1002900041044FEA430594EA050F08BF90EA020FB4
:1002A0001FBF54EA000C55EA020C7FEA645C7FEA47
:1002B000655C00F0E2804FEA5454D4EB5555B8BF6A
:1002C0006D420CDD2C4480EA020281EA030382EADB
:1002D000000083EA010180EA020281EA0303362D6D
:1002E00088BF30BD11F0004F4FEA01314FF4801C40
:1002F0004CEA113102D0404261EB410113F0004F52
:100300004FEA03334CEA133302D0524263EB430308
:1003100094EA050F00F0A780A4F10104D5F1200EA6
:100320000DDB02FA0EFC22FA05F2801841F1000101
:1003300003FA0EF2801843FA05F359410EE0A5F1D5
:1003400020050EF1200E012A03FA0EFC28BF4CF006
:10035000020C43FA05F3C01851EBE37101F00045BC
:1003600007D54FF0000EDCF1000C7EEB00006EEBC9
:100370000101B1F5801F1BD3B1F5001F0CD3490853
:100380005FEA30004FEA3C0C04F101044FEA4452AA
:1003900012F5800F80F09A80BCF1004F08BF5FEA31
:1003A000500C50F1000041EB045141EA050130BD11
:1003B0005FEA4C0C404141EB0101013C28BFB1F523
:1003C000801FE9D291F0000F04BF01460020B1FA6E
:1003D00081F308BF2033A3F10B03B3F120020CDA41
:1003E0000C3208DD02F1140CC2F10C0201FA0CF01F
:1003F00021FA02F10CE002F11402D8BFC2F1200C84
:1004000001FA02F120FA0CFCDCBF41EA0C01904039
:10041000E41AA2BF01EB0451294330BD6FEA040482
:100420001F3C1CDA0C340EDC04F11404C4F120026D
:1004300020FA04F001FA02F340EA030021FA04F37F
:1004400045EA030130BDC4F10C04C4F1200220FAD6
:1004500002F001FA04F340EA0300294630BD21FA14
:1004600004F0294630BD94F0000F83F4801306BFDA
:1004700081F480110134013D4EE77FEA645C18BFCE
:100480007FEA655C29D094EA050F08BF90EA020F65
:1004900005D054EA000C04BF1946104630BD91EA5D
:1004A000030F1EBF0021002030BD5FEA545C05D160
:1004B0004000494128BF41F0004130BD14F580049F
:1004C0003CBF01F5801130BD01F0004545F0FE4113
:1004D00041F470014FF0000030BD7FEA645C1ABF48
:1004E000194610467FEA655C1CBF0B46024650EA7F
:1004F000013406BF52EA033591EA030F41F40021AB
:1005000030BD00BF90F0000F04BF0021704730B530
:100510004FF4806404F132044FF000054FF0000105
:1005200050E700BF90F0000F04BF0021704730B5C6
:100530004FF4806404F1320410F0004548BF40429B
:100540004FF000013EE700BF42004FEAE2014FEAF0
:1005500031014FEA02701FBF12F07F4393F07F4FCB
:1005600081F06051704732F07F4208BF704793F0CE
:100570007F4F04BF41F40021704730B54FF46074E1
:1005800001F0004521F000411CE700BF50EA0102E4
:1005900008BF704730B54FF000050AE050EA01028D
:1005A00008BF704730B511F0004502D5404261EBFD
:1005B00041014FF4806404F132045FEA915C3FF43E
:1005C000D8AE4FF003025FEADC0C18BF03325FEADB
:1005D000DC0C18BF033202EBDC02C2F1200300FA8C
:1005E00003FC20FA02F001FA03FE40EA0E0021FAB1
:1005F00002F11444BDE600BF70B54FF0FF0C4CF49F
:10060000E06C1CEA11541DBF1CEA135594EA0C0F50
:1006100095EA0C0F00F0DEF82C4481EA030621EA8B
:100620004C5123EA4C5350EA013518BF52EA0335C6
:1006300041F4801143F4801338D0A0FB02CE4FF078
:100640000005E1FB02E506F00042E0FB03E54FF0A8
:100650000006E1FB03569CF0000F18BF4EF0010EA0
:10066000A4F1FF04B6F5007F64F5407404D25FEA9C
:100670004E0E6D4146EB060642EAC62141EA55514F
:100680004FEAC52040EA5E504FEACE2EB4F1FD0C91
:1006900088BFBCF5E06F1ED8BEF1004F08BF5FEA0F
:1006A000500E50F1000041EB045170BD06F00046C1
:1006B00046EA010140EA020081EA0301B4EB5C046E
:1006C000C2BFD4EB0C0541EA045170BD41F4801166
:1006D0004FF0000E013C00F3AB8014F1360FDEBF8B
:1006E000002001F0004170BDC4F10004203C35DA67
:1006F0000C341BDC04F11404C4F1200500FA05F3EA
:1007000020FA04F001FA05F240EA020001F000428A
:1007100021F0004110EBD37021FA04F642EB060100
:100720005EEA430E08BF20EAD37070BDC4F10C042A
:10073000C4F1200500FA04F320FA05F001FA04F2EE
:1007400040EA020001F0004110EBD37041F10001DA
:100750005EEA430E08BF20EAD37070BDC4F12005E5
:1007600000FA05F24EEA020E20FA04F301FA05F24D
:1007700043EA020321FA04F001F0004121FA04F2F5
:1007800020EA020000EBD3705EEA430E08BF20EAC5
:10079000D37070BD94F0000F0FD101F000464000FF
:1007A00041EB010111F4801F08BF013CF7D041EA81
:1007B000060195F0000F18BF704703F00046520085
:1007C00043EB030313F4801F08BF013DF7D043EA56
:1007D0000603704794EA0C0F0CEA135518BF95EA0C
:1007E0000C0F0CD050EA410618BF52EA4306D1D193
:1007F00081EA030101F000414FF0000070BD50EAB2
:10080000410606BF1046194652EA430619D094EA3B
:100810000C0F02D150EA013613D195EA0C0F05D125
:1008200052EA03361CBF104619460AD181EA030179
:1008300001F0004141F0FE4141F470014FF0000031
:1008400070BD41F0FE4141F4780170BD70B54FF0CC
:10085000FF0C4CF4E06C1CEA11541DBF1CEA13554C
:1008600094EA0C0F95EA0C0F00F0A7F8A4EB05042E
:1008700081EA030E52EA03354FEA013100F0888025
:100880004FEA03334FF0805545EA131343EA1263EE
:100890004FEA022245EA111545EA10654FEA0026A3
:1008A0000EF000419D4208BF964244F1FD0404F55C
:1008B000407402D25B084FEA3202B61A65EB0305B8
:1008C0005B084FEA32024FF480104FF4002CB6EB75
:1008D000020E75EB030E22BFB61A754640EA0C00F5
:1008E0005B084FEA3202B6EB020E75EB030E22BF35
:1008F000B61A754640EA5C005B084FEA3202B6EB76
:10090000020E75EB030E22BFB61A754640EA9C0034
:100910005B084FEA3202B6EB020E75EB030E22BF04
:10092000B61A754640EADC0055EA060E18D04FEAC2
:10093000051545EA16754FEA06164FEAC30343EA62
:1009400052734FEAC2025FEA1C1CC0D111F4801F2F
:100950000BD141EA00014FF000004FF0004CB6E728
:1009600011F4801F04BF01430020B4F1FD0C88BFC7
:10097000BCF5E06F3FF6AFAEB5EB030C04BFB6EBD2
:10098000020C5FEA500C50F1000041EB045170BDC5
:100990000EF0004E4EEA113114EB5C04C2BFD4EBF2
:1009A0000C0541EA045170BD41F480114FF0000E76
:1009B000013C90E645EA060E8DE60CEA135594EAF2
:1009C0000C0F08BF95EA0C0F3FF43BAF94EA0C0FF5
:1009D0000AD150EA01347FF434AF95EA0C0F7FF46A
:1009E00025AF104619462CE795EA0C0F06D152EABE
:1009F00003353FF4FDAE1046194622E750EA4106A2
:100A000018BF52EA43067FF4C5AE50EA41047FF4B2
:100A10000DAF52EA43057FF4EBAE12E74FF0FF3C17
:100A200006E000BF4FF0010C02E000BF4FF0010CE8
:100A30004DF804CD4FEA410C7FEA6C5C4FEA430C61
:100A400018BF7FEA6C5C1BD001B050EA410C0CBFB0
:100A500052EA430C91EA030F02BF90EA020F002012
:100A6000704710F1000F91EA030F58BF994208BF79
:100A700090422CBFD8176FEAE37040F00100704736
:100A80004FEA410C7FEA6C5C02D150EA013C07D18D
:100A90004FEA430C7FEA6C5CD6D152EA033CD3D0D8
:100AA0005DF8040B704700BF8446104662468C46D2
:100AB0001946634600E000BF01B5FFF7B7FF002805
:100AC00048BF10F1000F01BD4DF808EDFFF7F4FF2E
:100AD0000CBF012000205DF808FB00BF4DF808EDB9
:100AE000FFF7EAFF34BF012000205DF808FB00BFDC
:100AF0004DF808EDFFF7E0FF94BF012000205DF8FE
:100B000008FB00BF4DF808EDFFF7CEFF94BF0120B2
:100B100000205DF808FB00BF4DF808EDFFF7C4FFAB
:100B200034BF012000205DF808FB00BF4FEA410CF4
:100B30007FEA6C5C02D150EA013C0AD14FEA430CD7
:100B40007FEA6C5C02D152EA033C02D14FF0000014
:100B500070474FF0010070474FEA410212F5001252
:100B600015D211D56FF47873B3EB625212D94FEAF4
:100B7000C12343F0004343EA505311F0004F23FADE
:100B800002F018BF404270474FF00000704750EA33
:100B9000013005D111F0004008BF6FF000407047F0
:100BA0004FF00000704700BF53B94AB9002908BF91
:100BB00000281CBF4FF0FF314FF0FF3000F088B924
:100BC000ADF1080C6DE904CE00F006F8DDF804E0A4
:100BD000DDE9022304B070472DE9F047089D8E46F9
:100BE00004468846002B4AD18A42174662D9B2FA97
:100BF00082F64EB1C6F1200301FA06F820FA03F39B
:100C0000B74043EA0808B4404FEA174E1FFA87FC82
:100C1000B8FBFEF1230C0EFB118843EA084301FBED
:100C20000CF29A4209D9FB1801F1FF3080F0EA80FA
:100C30009A4240F2E78002393B449A1AA3B2B2FBCF
:100C4000FEF00EFB102243EA024300FB0CFC9C4525
:100C500009D9FB1800F1FF3280F0D6809C4540F2A4
:100C6000D3803B44023840EA0140A3EB0C0300214F
:100C70001DB1F3400022C5E90032BDE8F0878B4288
:100C800005D90DB1C5E9000100210846F5E7B3FA21
:100C900083F1002946D1734502D3824200F20581D7
:100CA000841A6EEB030201209046002DE5D0C5E9C1
:100CB0000048E2E7002A00F09080B2FA82F6002EA7
:100CC00040F0A4808A1A030C4FEA174E80B2BCB2DF
:100CD0000121B2FBFEFC0EFB1C2243EA024304FB93
:100CE0000CF29A4207D9FB180CF1FF3802D29A4253
:100CF00000F2E080C4469B1AB3FBFEF20EFB1233F7
:100D000040EA034302FB04F49C4207D9FB1802F1BA
:100D1000FF3002D29C4200F2CA8002461B1B42EA0C
:100D20000C40A5E7C1F120068B4022FA06F71F43CD
:100D30000EFA01F420FA06F32EFA06FE4FEA1749DE
:100D4000234300FA01F81FFA87FCBEFBF9F01C0CE4
:100D500009FB10EE44EA0E4400FB0CFEA64502FA25
:100D600001F209D93C1900F1FF3A80F09C80A645B8
:100D700040F2998002383C44A4EB0E041FFA83FE33
:100D8000B4FBF9F309FB13444EEA044403FB0CFCE7
:100D9000A44508D93C1903F1FF3E80F08280A445A8
:100DA0007FD9023B3C4443EA0040A4EB0C04A0FB87
:100DB00002EC64457346E14662D35FD05DB1B8EBA7
:100DC000030264EB090404FA06F622FA01F31E4357
:100DD000CC40C5E9006400214FE7B1FBF2FC010CF7
:100DE00041EA0E4180B240EA01423B4638463C4669
:100DF000B846BE462026B1FBF7F1A2EB080241EA55
:100E00000C4166E7014618E710462CE7C6F12002C0
:100E10002EFA02F3B740B14020FA02F24FEA174E21
:100E20000A43B3FBFEF8BCB20EFB1833110C41EAC7
:100E3000034108FB04F9B04089454FEA104380B2F2
:100E40003ED9791808F1FF3C01D289451FD8A1EBA2
:100E50000901B1FBFEF909FB04F80EFB191192B26E
:100E600042EA0142424529D2BA1809F1FF31C4D2FF
:100E70004245C2D2A9F102013A44BEE7F0459DD2F3
:100E8000BEEB02036CEB070C0138E14696E7A7EBDB
:100E900009094944A8F1020CB1FBFEF909FB04F869
:100EA000DBE773467FE7504666E70846FDE63B44CE
:100EB000023A33E7ACF1020C3B441CE749469CE79D
:100EC000A1EB0901C446B1FBFEF909FB04F8C4E734
:100ED000704700BF80B584B000AF3B4600221A6067
:100EE0005A609A60DA60284B284A1A60264B4FF401
:100EF00080325A60244B00229A60234B01221A61EF
:100F0000214B01221A76204B002283F820201E4B11
:100F10000022DA621C4B1E4A9A621B4B0022DA60E6
:100F2000194B0222DA61184B012283F83020164B4C
:100F300000225A61144801F0FBFF0346002B01D048
:100F400000F0E0FE0E233B6001237B600723BB60C3
:100F50003B4619460C4802F04FFB0346002B01D0DC
:100F600000F0D0FE0F233B6002237B603B46194616
:100F7000054802F041FB0346002B01D000F0C2FE01
:100F800000BF1037BD4680BDF001002000200140A9
:100F90000100000F80B58AB000AF786007F114033C
:100FA00000221A605A609A60DA601A617B681B68D6
:100FB000334A93425FD100233B61324B5B6C314A31
:100FC00043F4807353642F4B5B6C03F480733B6179
:100FD0003B690023FB602B4B1B6B2A4A43F0040345
:100FE0001363284B1B6B03F00403FB60FB68302387
:100FF0007B610323BB610023FB6107F114031946E6
:10100000214803F0BDFA214B214A1A601F4B0022F0
:101010005A601E4B00229A601C4B0022DA601B4B68
:101020004FF480621A61194B4FF400625A61174BFA
:101030004FF400529A61154B4FF48072DA61134BF2
:1010400000221A62114B00225A62104802F096FEEA
:101050000346002B01D000F055FE7B680B4A9A63D3
:101060000A4A7B68936300220021122002F049FEA5
:10107000122002F062FE00BF2837BD4680BD00BFCF
:1010800000200140003802400008024038020020E1
:101090001064024080B582B000AF00237B600C4B2F
:1010A0001B6B0B4A43F480031363094B1B6B03F464
:1010B00080037B607B6800220021382002F021FE43
:1010C000382002F03AFE00BF0837BD4680BD00BFA1
:1010D0000038024080B58AB000AF07F11403002247
:1010E0001A605A609A60DA601A6100233B613C4BD7
:1010F0001B6B3B4A43F004031363394B1B6B03F038
:1011000004033B613B690023FB60354B1B6B344A96
:1011100043F080031363324B1B6B03F08003FB60CF
:10112000FB680023BB602E4B1B6B2D4A43F0010371
:1011300013632B4B1B6B03F00103BB60BB680023E5
:101140007B60274B1B6B264A43F002031363244B3F
:101150001B6B03F002037B607B6801224FF400519C
:10116000204803F0A9FB002210211F4803F0A4FB34
:101170004FF400537B610123BB610023FB6100231B
:101180003B6207F114031946164803F0F9F94FF4CE
:1011900040537B614FF48813BB610123FB6107F16E
:1011A00014031946104803F0EBF910237B61012367
:1011B000BB610023FB6100233B6207F11403194666
:1011C000094803F0DDF900220021282002F099FDF2
:1011D000282002F0B2FD00BF2837BD4680BD00BF09
:1011E00000380240000802400004024080B500AF11
:1011F000124B134A1A60114B124A5A600F4B0022CD
:101200009A600E4B0022DA600C4B4FF480421A6158
:101210000A4B00225A61094B00229A61074B0022B7
:10122000DA61064B00221A62044803F091FB034680
:10123000002B01D000F066FD00BF80BD98020020A9
:1012400000540040801A060080B58AB000AF786074
:1012500007F1140300221A605A609A60DA601A617A
:101260007B681B68194A93422BD100233B61184BC2
:101270001B6B174A43F002031363154B1B6B03F000
:1012800002033B613B69C0237B611223BB610023E6
:10129000FB6103233B6204237B6207F114031946BD
:1012A0000C4803F06DF90023FB60094B1B6C084AE6
:1012B00043F400131364064B1B6C03F40013FB6030
:1012C000FB6800BF2837BD4680BD00BF005400400A
:1012D000003802400004024080B582B000AF0B4BE2
:1012E0001B685B6A1A460A4B1B685B6A09490A4815
:1012F00007F0BAFA78607B689BB21A46064907483D
:1013000005F02CFE00BF0837BD4680BD4808002010
:10131000D808002090AB000830030020F809002016
:1013200080B58EB000AF78607B681B68914A9342AD
:1013300040F01C81904B1B7887F827308F4B1B881F
:101340009BB219468E4A97F8273053548B4B1B8813
:101350009BB201338B4A82FB03121111DA178A1AEE
:10136000322101FB02F29A1A92B2844B1A80834B0B
:101370001B889AB2844B1B889BB29A4210D1824B35
:101380001B889BB201337F4A82FB03121111DA17CB
:101390008A1A322101FB02F29A1A92B27A4B1A800F
:1013A000764B1B889BB23233774A128892B29B1AD3
:1013B000744A82FB03121111DA178A1A322101FBD7
:1013C00002F29A1A1346BB840023FB86B0E06E4BF0
:1013D0001B889BB21A46FB8E13446A4A82FB031297
:1013E0001111DA178A1A322101FB02F29A1A1346F6
:1013F0007B847B8C624AD35CDBB20D2B03D0FB8EEB
:101400000133FB8694E07B8C0A335E4A82FB031235
:101410001111DA178A1A322101FB02F29A1A1346C5
:101420003B843B8C564AD35CDBB2202B03D0FB8E33
:101430000133FB867CE000233B6319E07B8C5A1C64
:101440003B6B1A444F4B83FB02131911D317CB1A72
:10145000322101FB03F3D31A494AD35CD9B207F115
:101460000C023B6B13440A461A703B6B01333B631F
:101470003B6B082BE2DD3B7B1B027A7B1343FB615A
:10148000BB7B1B02FA7B1343BB613B7C1B027A7C58
:101490001343FB62BB7C1B02FA7C1343BB623B7DA4
:1014A000FB75FB6AB3F57A7F03D24FF47A73FB6264
:1014B00006E0FB6AB3F5AF6F02D94FF4AF63FB628E
:1014C000BB6AB3F57A7F03D24FF47A73BB6206E04E
:1014D000BB6AB3F5AF6F02D94FF4AF63BB62FB7D5C
:1014E00003F00103002B02D1FB695B4200E0FB69C2
:1014F000264A1360FB7D03F00203002B02D1BB6977
:101500005B4200E0BB69224A1360204B1B68204A03
:1015100012681146184600F0A3F81E4B1B68FA6AC1
:101520005A631C4B1B68BA6A9A63FB8E0B33FB86AB
:10153000BA8CFB8ED31A0A2B3FF749AF124B1B888C
:101540009BB21A46FB8E13440E4A82FB0312111102
:10155000DA178A1A322101FB02F29A1A92B20A4B66
:101560001A80012204490C4805F02EFD00BF3837CF
:10157000BD4680BD00440040EC0200202A0300204C
:10158000F80200201F85EB512C03002034040020BA
:101590003804002020090020F809002080B582B01E
:1015A00000AF0346FB80FB88B3F5805F23D1274B58
:1015B0001B68002B0CBF01230023DBB21A46234B10
:1015C0001A60224B1B68002B0AD0214B1B684FF47A
:1015D000AF625A631E4B1B684FF4AF629A6331E0EF
:1015E0001B4B1B684FF47A725A63194B1B684FF4FC
:1015F0007A729A6326E0FB88B3F5005F22D1154B1F
:101600001B68002B0CBF01230023DBB21A46114BD1
:101610001A60104B1B68002B10D00F4B47F2305252
:101620001A600E4B47F230521A600B4B1B680B4A84
:1016300012681146184600F013F803E0002100205C
:1016400000F00EF800BF0837BD4680BD2C04002016
:101650002009002030040020340400203804002039
:1016600080B582B000AF786039607B6807EE903A51
:10167000F8EEE77ADFED2E0AB0EE670A09F026FAF7
:10168000F0EE407ADFED2B0AB0EE670A09F03BFA84
:10169000F0EE407AFDEEE77A17EE903A7B603B6819
:1016A00007EE903AF8EEE77ADFED210AB0EE670A2E
:1016B00009F00CFAF0EE407ADFED1E0AB0EE670A90
:1016C00009F021FAF0EE407AFDEEE77A17EE903A53
:1016D0003B603B68002B08DB174B1B6800225A63FA
:1016E000154B1B683A689A6308E03B685A42124BF4
:1016F0001B685A63104B1B6800229A637B68002B9F
:1017000008DB0E4B1B680022DA630C4B1B687A68FF
:101710001A6408E07B685A42084B1B68DA63074B7F
:101720001B6800221A6400BF0837BD4680BD00BF99
:1017300000FF7FC700FF7F47680900209008002056
:1017400080B582B000AF78607B681B68044A934222
:1017500001D1FFF7C1FD00BF0837BD4680BD00BF06
:10176000001C004080B500AF1021024803F0BDF816
:1017700000BF80BD0004024080B487B000AF786035
:101780007B681B682F4A934255D12F4B1B781A4612
:101790002E4B19882E4B23F812102B4B1B781A4610
:1017A0002A4B59882B4B23F81210274B1B780133F7
:1017B000294A82FB03121111DA178A1A322101FB1E
:1017C00002F29A1AD2B2204B1A7000237B610023D6
:1017D0003B610AE01E4A3B6932F813301A467B69C6
:1017E00013447B613B6901333B613B69312BF1DD84
:1017F0007B69194AA2FB03231B099AB2174B1A8073
:101800000023FB600023BB600AE0124ABB6832F889
:1018100013301A46FB681344FB60BB680133BB609E
:10182000BB68312BF1DDFB680B4AA2FB03231B09CC
:101830009AB20A4B5A8000BF1C37BD465DF8047B44
:10184000704700BF00200140100400204403002026
:1018500048030020AC0300201F85EB511404002036
:101860002DE9904385B004AF01F0CCFA00F0E0F927
:10187000FFF730FCFFF70EFC01F020FA00F05CFEF1
:1018800000F006FE00F0DAFE00F0D8FFFFF722FBC2
:10189000FFF7ACFC01F040F800F024FF0821944869
:1018A00004F076FA0C21924804F072FA0021914873
:1018B00004F06EFA04218F4804F06AFA00218E4881
:1018C00004F066FA04218C4804F062FA04218B4883
:1018D00004F0CCFB04218A4804F0C8FB0C2289499F
:1018E000894805F071FB01228649874805F06CFBA9
:1018F00002228649864801F04DFD864804F07EF9B3
:10190000834801F059FB00F03DFA012000F0A4FAF1
:1019100000F0BAFA002000F09FFA0021002000F049
:10192000E5FB7D4B012200920ECB7C4800F0B8FB1A
:1019300000F0AAFA4FF47A7001F0D6FA002000F015
:101940008BFA774B1B881846FEF7ECFD5EA3D3E9B4
:101950000023FEF751FE02460B46104619465CA3D3
:10196000D3E90023FEF792FC02460B4690469946C7
:101970006B4B1B881846FEF7D5FD53A3D3E9002314
:10198000FEF73AFE02460B461046194650A3D3E92D
:101990000023FEF77BFC02460B46104619464FF02B
:1019A0000002604BFFF79AF80346002B01D05E4C13
:1019B00000E05E4C5A4B5B881846FEF7B3FD46A329
:1019C000D3E90023FEF718FE02460B4610461946DF
:1019D00043A3D3E90023FEF757FC02460B4610460B
:1019E000194641A3D3E90023FEF730FF02460B4618
:1019F000104619464FF000024FF00003FFF76EF853
:101A00000346002B04D04FF000024FF000031DE00E
:101A1000434B5B881846FEF785FD2FA3D3E90023CF
:101A2000FEF7EAFD02460B46104619462CA3D3E901
:101A30000023FEF729FC02460B46104619462AA34E
:101A4000D3E90023FEF702FF02460B46CDE902234D
:101A5000009442464B463649364806F005FF0021C1
:101A6000002000F043FB2C4B012200920ECB3148AA
:101A700000F016FB214B1B685A6A204B1B681B6841
:101A800003F01003102B01D12B4B00E02B4B2C4902
:101A9000284806F0E9FE1021002000F027FB294B22
:101AA000012200920ECB234800F0FAFA144B1B6877
:101AB0005A6A134B1B681B6803F01003102B43D1A9
:101AC0001D4B42E0AFF3008010CF87285CCF723F00
:101AD000295C8FC2F528CC3F9A9999999999E93F49
:101AE000000000000088A3400000000000206740C4
:101AF00090080020680900202009002048080020E4
:101B0000D8080020EC020020F8090020440300203F
:101B1000F0010020B00900206CBF00089CAB000859
:101B20001404002000001E40A8AB0008B0AB000861
:101B3000B4AB000818040020C4AB0008C8AB000810
:101B4000CCAB000860BF00082E4B2F492F4806F091
:101B50008BFE1821002000F0C9FA2D4B01220092C3
:101B60000ECB2A4800F09CFA2A4B1B681A462A49D9
:101B7000264806F079FE2021002000F0B7FA244B19
:101B8000012200920ECB214800F08AFA234B1B68F9
:101B90001A4623491D4806F067FE2821002000F060
:101BA000A5FA1B4B012200920ECB184800F078FAE0
:101BB0001C4B1B685B6B1A461B49144806F054FE0D
:101BC0003021002000F092FA114B012200920ECB3E
:101BD0000E4800F065FA134B1B689B6B1A461349BD
:101BE0000A4806F041FE3821002000F07FFA084B39
:101BF000012200920ECB054800F052FA00F044F9A1
:101C00009CE600BFC8AB0008D4AB00081804002055
:101C100060BF000834040020DCAB0008380400205A
:101C2000ECAB000820090020FCAB000808AC000861
:101C300080B594B000AF07F1200330220021184690
:101C400006F077FE07F10C0300221A605A609A60D2
:101C5000DA601A610023BB60284B1B6C274A43F0F3
:101C600080531364254B1B6C03F08053BB60BB682F
:101C700000237B60224B1B68214A43F4804313609E
:101C80001F4B1B6803F480437B607B6802233B622D
:101C90000123FB6210233B630223BB630023FB632E
:101CA00008233B64A8237B640223BB640423FB64F6
:101CB00007F12003184603F0F9FA0346002B01D080
:101CC00000F020F80F23FB6002233B6100237B61BF
:101CD0004FF4A053BB614FF48053FB6107F10C0339
:101CE0000521184603F05AFD0346002B01D000F0F1
:101CF00009F800BF5037BD4680BD00BF0038024024
:101D00000070004080B400AF72B600BF00BFFDE7B6
:101D100080B400AF00BFBD465DF8047B7047000093
:101D200080B586B004AF0346FB714FF0FF330293DA
:101D300001230193FB1D0093012300227821034816
:101D400002F04AFF00BF0837BD4680BD9802002060
:101D500080B586B004AF786039603B689BB24FF0C5
:101D6000FF32029201937B68009301234022782185
:101D7000034802F031FF00BF0837BD4680BD00BFF9
:101D80009802002080B500AFFFF7C2FF642001F089
:101D9000ABF8002000F0D6F92020FFF7C1FF0020AB
:101DA000FFF7BEFFB020FFF7BBFFC820FFF7B8FF6B
:101DB0000020FFF7B5FF1020FFF7B2FF4020FFF72C
:101DC000AFFFFF2000F0AAF9A120FFF7A9FFA6208E
:101DD000FFF7A6FFA820FFF7A3FF3F20FFF7A0FF14
:101DE000A420FFF79DFFD320FFF79AFF0020FFF705
:101DF00097FFD520FFF794FFF020FFF791FFD92040
:101E0000FFF78EFF2220FFF78BFFDA20FFF788FF16
:101E10001220FFF785FFDB20FFF782FF2020FFF76E
:101E20007FFF8D20FFF77CFF1420FFF779FF012053
:101E300000F088F9002000F00FF800F025F8054BBD
:101E400000221A80034B00225A80024B01221A7191
:101E500000BF80BD3C08002080B582B000AF0346C3
:101E6000FB71FB79002B01D1002300E0FF234FF42D
:101E700080621946034806F05CFD00BF0837BD4686
:101E800080BD00BF3C04002080B582B000AF0023BD
:101E9000FB7116E0FB79503BDBB21846FFF740FFC1
:101EA0000020FFF73DFF1020FFF73AFFFB79DB0131
:101EB000084A134480211846FFF74AFFFB79013393
:101EC000FB71FB79072BE5D900BF00BF0837BD4682
:101ED00080BD00BF3C04002080B483B000AF034647
:101EE000FB710B46BB7113467B7197F90730002BD2
:101EF0003DDBBB793F2B3AD87B79012B1AD1FA799C
:101F0000BB79DB08D8B20346DB0113441B4AD35C20
:101F10005AB2BB7903F00703012101FA03F35BB264
:101F2000134359B2FA790346DB011344C9B2134A89
:101F3000D1541DE0FA79BB79DB08D8B20346DB0146
:101F400013440E4AD35C5AB2BB7903F00703012154
:101F500001FA03F35BB2DB435BB2134059B2FA7987
:101F60000346DB011344C9B2044AD15400E000BF68
:101F70000C37BD465DF8047B704700BF3C04002071
:101F800090B589B000AF0446384680E80E0023467D
:101F9000FB73FB7B1F2B02D9FB7B7E2B01D900231C
:101FA00077E03E4B1B881A463B781344802B06DCB7
:101FB0003A4B5B881A467B781344402B01DD0023A3
:101FC00067E00023FB614EE07A68FB7B203B797879
:101FD00001FB03F31946FB690B445B0013441B88A8
:101FE0007B610023BB6136E07A69BB6902FA03F3C7
:101FF00003F40043002B13D0284B1B88DAB2BB69D3
:10200000DBB21344D8B2254B5B88DAB2FB69DBB292
:102010001344DBB297F830201946FFF75DFF17E055
:102020001E4B1B88DAB2BB69DBB21344D8B21B4B20
:102030005B88DAB2FB69DBB21344D9B297F830306F
:10204000002B0CBF01230023DBB21A46FFF744FF2D
:10205000BB690133BB613B781A46BB699342C3D36A
:10206000FB690133FB617B781A46FB699342ABD372
:102070000A4B1B88BA68002A05D0B968FA7B203A57
:102080000A44127800E03A7813449AB2034B1A805B
:10209000FB7B18462437BD4690BD00BF3C0800209E
:1020A00080B586B002AFF860384680E80E0013E0D5
:1020B000FB6818783B7E00933B460ECBFFF760FF32
:1020C00003461A46FB681B789A4202D0FB681B78CD
:1020D00008E0FB680133FB60FB681B78002BE7D14D
:1020E000FB681B7818461037BD4680BD80B483B0AE
:1020F00000AF03460A46FB711346BB71FB799AB2E7
:10210000054B1A80BB799AB2034B5A8000BF0C373B
:10211000BD465DF8047B70473C08002080B584B064
:1021200000AF0346FB718123FB73FB7B1846FFF76F
:10213000F7FDFB791846FFF7F3FD00BF1037BD46EA
:1021400080BD000080B584B000AF0346FB71FB7911
:10215000002B05D0AF23FB73084B01225A7104E01A
:10216000AE23FB73054B00225A71FB7B1846FFF729
:10217000D7FD00BF1037BD4680BD00BF3C08002022
:1021800080B483B000AF00237B60104B5B6C0F4AC0
:1021900043F4804353640D4B5B6C03F480437B60DA
:1021A0007B6800233B60094B1B6C084A43F080535B
:1021B0001364064B1B6C03F080533B603B6800BF0D
:1021C0000C37BD465DF8047B704700BF0038024005
:1021D00080B400AF00BFFDE780B400AF00BFFDE7F3
:1021E00080B400AF00BFFDE780B400AF00BFFDE7E3
:1021F00080B400AF00BFFDE780B400AF00BFBD46B4
:102200005DF8047B704780B400AF00BFBD465DF849
:10221000047B704780B400AF00BFBD465DF8047B0F
:10222000704780B500AF00F03FFE01F0A0FD00BF99
:1022300080BD000080B500AF024800F09BFF00BFEA
:1022400080BD00BFF001002080B500AF024803F060
:102250009BFF00BF80BD00BF4808002080B500AFD5
:10226000024803F091FF00BF80BD00BF900800202E
:1022700080B500AF024804F0CDFE00BF80BD00BFB6
:10228000F809002080B500AF4FF4805002F048FB01
:102290004FF4005002F044FB00BF80BD80B500AF9A
:1022A000034803F071FF034803F06EFF00BF80BDD9
:1022B00020090020B009002080B500AF024803F0DB
:1022C00063FF00BF80BD00BFD808002080B500AF0D
:1022D000024801F0EBFE00BF80BD00BF38020020C5
:1022E00080B400AF01231846BD465DF8047B7047FB
:1022F00080B582B000AF7860396006F06DFB0346B0
:1023000016221A604FF0FF3318460837BD4680BDCD
:1023100080B582B000AF78604FF0FF317868FFF78A
:10232000E7FF00BFFDE780B586B000AFF860B96099
:102330007A6000237B610AE0AFF300800146BB684E
:102340005A1CBA60CAB21A707B6901337B617A6920
:102350007B689A42F0DB7B6818461837BD4680BD23
:1023600080B586B000AFF860B9607A6000237B6109
:1023700009E0BB685A1CBA601B781846AFF30080AE
:102380007B6901337B617A697B689A42F1DB7B6808
:1023900018461837BD4680BD80B483B000AF786062
:1023A0004FF0FF3318460C37BD465DF8047B70478D
:1023B00080B483B000AF786039603B684FF400525E
:1023C0005A60002318460C37BD465DF8047B704701
:1023D00080B483B000AF7860012318460C37BD4647
:1023E0005DF8047B704780B485B000AFF860B960D9
:1023F0007A60002318461437BD465DF8047B7047A9
:1024000080B586B000AF7860144A154BD31A7B6153
:102410007B693B61134B1B68002B02D1114B124AA5
:102420001A60104B1A687B6813443A699A4207D2C3
:1024300006F0D2FA03460C221A604FF0FF3309E08F
:10244000084B1B68FB60074B1A687B681344054AFE
:102450001360FB6818461837BD4680BD0000022097
:102460000004000044080020900B002080B400AF5E
:10247000064BD3F88830054A43F47003C2F888301D
:1024800000BFBD465DF8047B704700BF00ED00E073
:1024900080B58CB000AF07F10C0324220021184650
:1024A00006F047FA3B1D00221A605A60214B4FF09C
:1024B00080421A601F4B00225A601E4B00229A6015
:1024C0001C4B4FF0FF32DA601A4B00221A61194B95
:1024D00000229A610323FB6000233B6101237B619F
:1024E0000023BB610023FB6102233B6201237B626B
:1024F0000023BB620023FB6207F10C0319460D4861
:1025000003F00EFD0346002B01D0FFF7FBFB002379
:102510007B600023BB603B1D1946064804F0ECFBC2
:102520000346002B01D0FFF7EDFB00BF3037BD465F
:1025300080BD00BF4808002080B58EB000AF07F115
:10254000280300221A605A609A60DA6007F12003BB
:1025500000221A605A603B1D00221A605A609A607D
:10256000DA601A615A619A61324B334A1A60314B10
:1025700001225A602F4B00229A602E4B4FF6FF72B9
:10258000DA602C4B00221A612A4B00229A612948FA
:1025900003F0E4FA0346002B01D0FFF7B3FB4FF43E
:1025A0008053BB6207F128031946224803F09EFFBF
:1025B0000346002B01D0FFF7A5FB1E4803F08EFB5E
:1025C0000346002B01D0FFF79DFB00233B62002355
:1025D0007B6207F120031946164804F08DFB034681
:1025E000002B01D0FFF78EFB60237B600023BB60D4
:1025F0000223FB6000237B613B1D082219460D4826
:1026000003F0B2FE0346002B01D0FFF77BFB3B1D1E
:102610000C221946074803F0A7FE0346002B01D001
:10262000FFF770FB034800F0BFFA00BF3837BD4624
:1026300080BD00BF900800200008004080B58CB02D
:1026400000AF07F10C0324220021184606F071F9AF
:102650003B1D00221A605A60204B214A1A601F4B12
:1026600000225A601D4B00229A601C4B4FF0FF3233
:10267000DA601A4B00221A61184B00229A61032378
:10268000FB6000233B6101237B610023BB610023CE
:10269000FB6102233B6201237B620023BB620023B8
:1026A000FB6207F10C0319460C4803F039FC0346A2
:1026B000002B01D0FFF726FB00237B600023BB60CB
:1026C0003B1D1946054804F017FB0346002B01D0BB
:1026D000FFF718FB00BF3037BD4680BDD80800208B
:1026E000000C004080B596B000AF07F1480300220F
:1026F0001A605A609A60DA6007F1400300221A609B
:102700005A6007F1240300221A605A609A60DA6066
:102710001A615A619A613B1D20220021184606F079
:1027200008F9444B444A1A60424BA8225A60414B74
:1027300000229A603F4B49F63F42DA603D4B00224F
:102740001A613C4B00225A613A4B80229A61394807
:1027500003F004FA0346002B01D0FFF7D3FA4FF43D
:102760008053BB6407F148031946324803F0BEFEAC
:102770000346002B01D0FFF7C5FA2E4803F0AEFA4E
:102780000346002B01D0FFF7BDFA00233B64002372
:102790007B6407F140031946264804F0ADFA03466E
:1027A000002B01D0FFF7AEFA60237B620023BB62EF
:1027B0000023FB6200233B6300237B630023BB6396
:1027C0000023FB6307F1240300221946194803F094
:1027D000CBFD0346002B01D0FFF794FA07F1240349
:1027E00004221946134803F0BFFD0346002B01D015
:1027F000FFF788FA00237B600023BB600023FB60A7
:1028000000233B6100237B614FF40053BB61002335
:102810003B623B1D1946074804F0EAFA0346002BC9
:1028200001D0FFF76FFA034800F0BEF900BF583738
:10283000BD4680BD200900200004014080B58CB059
:1028400000AF07F1200300221A605A609A60DA6034
:102850003B1D00221A605A609A60DA601A615A6160
:102860009A612B4B2B4A1A60294B01225A60284B44
:1028700000229A60264B4FF6FF72DA60244B00224A
:102880001A61234B00229A61214803F067F903463D
:10289000002B01D0FFF736FA4FF480533B6207F16B
:1028A000200319461A4803F021FE0346002B01D0ED
:1028B000FFF728FA164803F011FA0346002B01D05F
:1028C000FFF720FA60237B600023BB600223FB60DC
:1028D00000237B613B1D002219460D4803F044FD97
:1028E0000346002B01D0FFF70DFA3B1D04221946C9
:1028F000074803F039FD0346002B01D0FFF702FA29
:10290000034800F051F900BF3037BD4680BD00BF1D
:10291000680900200018004080B500AF0E4B0F4A38
:102920001A600D4BA7225A600B4B00229A600A4B8B
:1029300042F21072DA60084B00221A61064B002244
:102940009A61054803F00AF90346002B01D0FFF70E
:10295000D9F900BF80BD00BFB0090020001C0040B5
:1029600080B58CB000AF786007F11C0300221A60BC
:102970005A609A60DA601A617B681B68B3F1804F15
:1029800052D10023BB61474B1B6C464A43F0010305
:102990001364444B1B6C03F00103BB61BB69002350
:1029A0007B61404B1B6B3F4A43F0010313633D4B7C
:1029B0001B6B03F001037B617B6900233B61394B97
:1029C0001B6B384A43F002031363364B1B6B03F057
:1029D00002033B613B692023FB6102233B6200232E
:1029E0007B620023BB620123FB6207F11C031946D3
:1029F0002D4801F0C5FD0823FB6102233B62002343
:102A00007B620023BB620123FB6207F11C031946B2
:102A1000264801F0B5FD002200211C2001F071F9CB
:102A20001C2001F08AF938E07B681B68204A934239
:102A300033D10023FB601B4B1B6C1A4A43F0080385
:102A40001364184B1B6C03F00803FB60FB68002346
:102A5000BB60144B1B6B134A43F001031363114B10
:102A60001B6B03F00103BB60BB680323FB61022304
:102A70003B6200237B620023BB620223FB6207F1FF
:102A80001C031946084801F07BFD0022002132207A
:102A900001F037F9322001F050F900BF3037BD4660
:102AA00080BD00BF00380240000002400004024028
:102AB000000C004080B586B000AF78607B681B6872
:102AC000344A934216D100237B61334B1B6C324A4C
:102AD00043F004031364304B1B6C03F004037B616D
:102AE0007B69002200211E2001F00BF91E2001F05D
:102AF00024F94AE07B681B68284A934216D10023D8
:102B00003B61254B5B6C244A43F002035364224B28
:102B10005B6C03F002033B613B69002200212C2027
:102B200001F0EFF82C2001F008F92EE07B681B681B
:102B30001B4A93420ED10023FB60174B1B6C164AB5
:102B400043F040031364144B1B6C03F04003FB6021
:102B5000FB681AE07B681B68124A934215D1002378
:102B6000BB600D4B1B6C0C4A43F0800313640A4B93
:102B70001B6C03F08003BB60BB68002200212C208B
:102B800001F0BFF82C2001F0D8F800BF1837BD467F
:102B900080BD00BF00080040003802400004014032
:102BA00000180040001C004080B58AB000AF78607B
:102BB00007F1140300221A605A609A60DA601A6101
:102BC0007B681B68374A93421FD100233B61364B19
:102BD0001B6B354A43F002031363334B1B6B03F04B
:102BE00002033B613B694FF440737B610223BB618D
:102BF0000023FB6100233B6202237B6207F1140385
:102C000019462A4801F0BCFC47E07B681B68284A4B
:102C100093421ED10023FB60234B1B6B224A43F0DF
:102C200004031363204B1B6B03F00403FB60FB687E
:102C3000C0237B610223BB610023FB6100233B6255
:102C400003237B6207F1140319461A4801F098FC2C
:102C500023E07B681B68184A93421ED10023BB60A7
:102C6000114B1B6B104A43F0020313630E4B1B6B9B
:102C700003F00203BB60BB684FF440437B61022357
:102C8000BB610023FB6100233B6209237B6207F1E8
:102C900014031946054801F073FC00BF2837BD46F0
:102CA00080BD00BF00080040003802400004024020
:102CB00000040140000802400018004080B500AF49
:102CC000114B124A1A60104B4FF4E1325A600E4B0E
:102CD00000229A600C4B0022DA600B4B00221A6132
:102CE000094B0C225A61084B00229A61064B0022C4
:102CF000DA61054804F0E2F80346002B01D0FFF743
:102D000001F800BF80BD00BFF8090020004400406A
:102D100080B58AB000AF786007F1140300221A6012
:102D20005A609A60DA601A617B681B681D4A934298
:102D300033D100233B611C4B1B6C1B4A43F4003313
:102D40001364194B1B6C03F400333B613B69002394
:102D5000FB60154B1B6B144A43F001031363124BCA
:102D60001B6B03F00103FB60FB680C237B610223F8
:102D7000BB610023FB6103233B6207237B6207F1F6
:102D800014031946094801F0FBFB0022002126200C
:102D900000F0B7FF262000F0D0FF00BF2837BD4667
:102DA00080BD00BF004400400038024000000240E7
:102DB000DFF834D0FFF75AFB0C480D490D4A0023C9
:102DC00002E0D458C4500433C4188C42F9D30A4AE0
:102DD0000A4C002301E013600432A242FBD305F049
:102DE00001FEFEF73DFD70470000022000000020BC
:102DF000D40100201CC30008D4010020900B002047
:102E0000FEE7000080B500AF0E4B1B680D4A43F48F
:102E1000007313600B4B1B680A4A43F48063136012
:102E2000084B1B68074A43F480731360032000F0CB
:102E30005DFF0F2000F008F8FFF7A2F90023184605
:102E400080BD00BF003C024080B582B000AF78601A
:102E5000124B1A68124B1B7819464FF47A73B3FB66
:102E6000F1F3B2FBF3F3184600F075FF0346002BB5
:102E700001D001230EE07B680F2B0AD8002279686D
:102E80004FF0FF3000F03DFF064A7B6813600023DF
:102E900000E0012318460837BD4680BD0000002031
:102EA000080000200400002080B400AF064B1B780F
:102EB0001A46064B1B681344044A136000BFBD4604
:102EC0005DF8047B704700BF08000020400A002026
:102ED00080B400AF034B1B681846BD465DF8047B09
:102EE000704700BF400A002080B584B000AF786012
:102EF000FFF7EEFFB8607B68FB60FB68B3F1FF3F54
:102F000005D00A4B1B781A46FB681344FB6000BFD0
:102F1000FFF7DEFF0246BB68D31AFA689A42F7D879
:102F200000BF00BF1037BD4680BD00BF08000020B5
:102F300080B584B000AF78600023FB737B68002B02
:102F400001D1012333E07B681B6C002B09D1786829
:102F5000FEF720F87B6800225A647B68002283F821
:102F60003C207B681B6C03F01003002B18D17B689E
:102F70001B6C23F4885323F0020343F002027B68A6
:102F80001A64786800F05AFC7B6800225A647B68F7
:102F90001B6C23F0030343F001027B681A6401E019
:102FA0000123FB737B68002283F83C20FB7B1846DF
:102FB0001037BD4680BD000080B485B000AF78609A
:102FC0000023BB607B6893F83C30012B01D10223C6
:102FD000BDE07B68012283F83C207B681B689B680E
:102FE00003F00103012B18D07B681B689A687B688B
:102FF0001B6842F001029A60584B1B68584AA2FBBA
:1030000003239A0C13465B001344BB6002E0BB68C9
:10301000013BBB60BB68002BF9D17B681B689B68D8
:1030200003F00103012B40F085807B681B6C23F4C7
:10303000E06323F0010343F480727B681A647B68C9
:103040001B685B6803F48063002B07D07B681B6CF4
:1030500023F4405343F480527B681A647B681B6CF2
:1030600003F48053B3F5805F06D17B685B6C23F07B
:1030700006027B685A6402E07B6800225A647B681F
:10308000002283F83C20374BFB607B681B686FF0A5
:1030900022021A607B681B685B687A68126843F0DA
:1030A000806343F020035360FB685B6803F01F03F9
:1030B000002B2AD17B681B682B4A934215D07B6872
:1030C0001B682A4A934205D1264B5B6803F01F0315
:1030D000002B0AD07B681B68254A934236D1214BCE
:1030E0005B6803F01003002B30D17B681B689B6882
:1030F00003F04053002B29D17B681B689A687B68DA
:103100001B6842F080429A6020E07B681B68164A88
:1031100093421BD17B681B689B6803F04053002BD4
:1031200014D17B681B689A687B681B6842F08042F8
:103130009A600BE07B681B6C43F010027B681A649A
:103140007B685B6C43F001027B685A64002318467D
:103150001437BD465DF8047B704700BF00000020B7
:1031600083DE1B4300230140002001400021014079
:103170000022014080B586B000AF786000237B61FB
:1031800000233B617B681B681B68FB607B681B68D6
:103190005B68BB60FB6803F002037B61BB6803F004
:1031A00020033B617B69002B49D03B69002B46D053
:1031B0007B681B6C03F01003002B05D17B681B6C34
:1031C00043F400727B681A647B681B689B6803F099
:1031D0004053002B2BD17B681B7E002B27D17B68B3
:1031E0001B68DB6A03F47003002B06D07B681B6846
:1031F0009B6803F48063002B19D17B681B685A68B5
:103200007B681B6822F020025A607B681B6C23F4E9
:1032100080727B681A647B681B6C03F48053002BFC
:1032200005D17B681B6C43F001027B681A647868E7
:10323000FEF7A2FA7B681B686FF012021A60FB6847
:1032400003F004037B61BB6803F080033B617B698F
:10325000002B57D03B69002B54D07B681B6C03F0CC
:103260001003002B05D17B681B6C43F400527B6874
:103270001A647B681B689B6803F44013002B39D1E8
:103280007B681B689B6B03F44013002B06D07B68A4
:103290001B689B6803F48063002B2BD17B681B6841
:1032A0005B6803F48063002B24D17B681B689B68F8
:1032B00003F04053002B1DD17B681B7E002B19D1DE
:1032C0007B681B685A687B681B6822F080025A6022
:1032D0007B681B6C23F480527B681A647B681B6CD0
:1032E00003F48073002B05D17B681B6C43F0010253
:1032F0007B681A64786800F01FFC7B681B686FF0BD
:103300000C021A60FB6803F001037B61BB6803F0E9
:1033100040033B617B69002B17D03B69002B14D025
:103320007B681B681B6803F00103012B0DD17B68D0
:103330001B6C43F480327B681A64786800F048F9AB
:103340007B681B686FF001021A60FB6803F02003C2
:103350007B61BB6803F080633B617B69002B15D008
:103360003B69002B12D07B685B6C43F002027B68E8
:103370005A647B681B686FF020021A60786800F05E
:1033800031F97B681B686FF020021A6000BF1837A4
:10339000BD4680BD80B588B000AFF860B9607A6086
:1033A00000237B610023FB77FB6893F83C30012B03
:1033B00001D10223EBE0FB68012283F83C20FB688B
:1033C0001B689B6803F00103012B18D0FB681B6886
:1033D0009A68FB681B6842F001029A606E4B1B689A
:1033E0006E4AA2FB03239A0C13465B0013447B61D5
:1033F00002E07B69013B7B617B69002BF9D1FB68B3
:103400001B689B6803F48073B3F5807F07D1FB686A
:103410001B689A68FB681B6822F480729A60FB68DC
:103420001B689B6803F00103012B40F0A380FB683D
:103430001B6C23F4E06323F0010343F48072FB6808
:103440001A64FB681B685B6803F48063002B07D079
:10345000FB681B6C23F4405343F48052FB681A64EE
:10346000FB681B6C03F48053B3F5805F06D1FB68E7
:103470005B6C23F00602FB685A6402E0FB680022E2
:103480005A64FB68002283F83C20454BBB61FB6813
:103490009B6B444ADA63FB689B6B434A1A64FB6884
:1034A0009B6B424ADA64FB681B686FF022021A6069
:1034B000FB681B685A68FB681B6842F080625A60B0
:1034C000FB681B689A68FB681B6842F480729A600C
:1034D000FB68986BFB681B684C331946BA687B68BD
:1034E00000F0FAFC0346FB77BB695B6803F01F033F
:1034F000002B2AD1FB681B682D4A934215D0FB682C
:103500001B682C4A934205D1254B5B6803F01F03CF
:10351000002B0AD0FB681B68274A934236D1204B08
:103520005B6803F01003002B30D1FB681B689B68BD
:1035300003F04053002B29D1FB681B689A68FB6895
:103540001B6842F080429A6020E0FB681B68184AC2
:1035500093421BD1FB681B689B6803F04053002B10
:1035600014D1FB681B689A68FB681B6842F08042B4
:103570009A600BE0FB681B6C43F01002FB681A6456
:10358000FB685B6C43F00102FB685A64FB7F1846E2
:103590002037BD4680BD00BF0000002083DE1B43F6
:1035A00000230140353A0008EF3A00080B3B0008C1
:1035B00000200140002101400022014080B483B07E
:1035C00000AF786000BF0C37BD465DF8047B7047E4
:1035D00080B483B000AF786000BF0C37BD465DF8A3
:1035E000047B704780B483B000AF786000BF0C37B5
:1035F000BD465DF8047B704780B485B000AF78604D
:1036000039600023BB607B6893F83C30012B01D10B
:10361000022305E17B68012283F83C203B681B689C
:10362000092B25D97B681B68D9683B681B689BB24E
:103630001A4613465B0013441E3B072202FA03F3AB
:10364000DA437B681B680A40DA607B681B68D968CC
:103650003B689A683B681B689BB2184603465B0050
:1036600003441E3B9A407B681B680A43DA6022E0F1
:103670007B681B6819693B681B689BB21A46134636
:103680005B001344072202FA03F3DA437B681B68EA
:103690000A401A617B681B6819693B689A683B6835
:1036A0001B689BB2184603465B0003449A407B6844
:1036B0001B680A431A613B685B68062B24D87B6849
:1036C0001B68596B3B685A6813469B001344053BC3
:1036D0001F2202FA03F3DA437B681B680A405A632D
:1036E0007B681B68596B3B681B689BB218463B683C
:1036F0005A6813469B001344053B00FA03F27B68AB
:103700001B680A435A634CE03B685B680C2B24D867
:103710007B681B68196B3B685A6813469B0013440F
:10372000233B1F2202FA03F3DA437B681B680A403B
:103730001A637B681B68196B3B681B689BB2184651
:103740003B685A6813469B001344233B00FA03F27C
:103750007B681B680A431A6323E07B681B68D96A8D
:103760003B685A6813469B001344413B1F2202FAF0
:1037700003F3DA437B681B680A40DA627B681B68E4
:10378000D96A3B681B689BB218463B685A68134667
:103790009B001344413B00FA03F27B681B680A4319
:1037A000DA62224BFB607B681B68214A934209D195
:1037B0003B681B68122B05D1FB685B6843F48002F1
:1037C000FB685A607B681B68194A934223D13B68A7
:1037D0001B68102B03D03B681B68112B1BD1FB68A7
:1037E0005B6843F40002FB685A603B681B68102B5F
:1037F00011D1104B1B68104AA2FB03239A0C1346ED
:103800009B0013445B00BB6002E0BB68013BBB60F4
:10381000BB68002BF9D17B68002283F83C20002391
:1038200018461437BD465DF8047B704700230140FD
:10383000002001400000002083DE1B4380B485B0DF
:1038400000AF7860794BFB60FB685B6823F4403223
:10385000FB685A60FB685A687B685B681A43FB68C0
:103860005A607B681B685A687B681B6822F4807208
:103870005A607B681B6859687B681B691A027B6801
:103880001B680A435A607B681B685A687B681B6820
:1038900022F040725A607B681B6859687B689A689E
:1038A0007B681B680A435A607B681B689A687B6860
:1038B0001B6822F400629A607B681B6899687B68C9
:1038C000DA687B681B680A439A607B689B6A584A7F
:1038D000934222D07B681B689A687B681B6822F041
:1038E00070629A607B681B6899687B689A6A7B68DB
:1038F0001B680A439A607B681B689A687B681B6830
:1039000022F040529A607B681B6899687B68DA6A8B
:103910007B681B680A439A600FE07B681B689A68A3
:103920007B681B6822F070629A607B681B689A68EB
:103930007B681B6822F040529A607B681B689A681B
:103940007B681B6822F002029A607B681B6899689A
:103950007B681B7E5A007B681B680A439A607B6801
:1039600093F82030002B1BD07B681B685A687B685B
:103970001B6842F400625A607B681B685A687B6867
:103980001B6822F460425A607B681B6859687B6838
:103990005B6A013B5A037B681B680A435A6007E075
:1039A0007B681B685A687B681B6822F400625A6057
:1039B0007B681B68DA6A7B681B6822F47002DA6233
:1039C0007B681B68D96A7B68DB69013B1A057B68E9
:1039D0001B680A43DA627B681B689A687B681B680D
:1039E00022F400729A607B681B6899687B6893F880
:1039F00030305A027B681B680A439A607B681B68F8
:103A00009A687B681B6822F480629A607B681B68F6
:103A100099687B685B699A027B681B680A439A60B5
:103A200000BF1437BD465DF8047B7047002301409A
:103A30000100000F80B584B000AF78607B689B6B9D
:103A4000FB60FB681B6C03F05003002B3CD1FB6850
:103A50001B6C43F40072FB681A64FB681B689B686C
:103A600003F04053002B2BD1FB681B7E002B27D18A
:103A7000FB681B68DB6A03F47003002B06D0FB684D
:103A80001B689B6803F48063002B19D1FB681B68DB
:103A90005A68FB681B6822F020025A60FB681B6CA6
:103AA00023F48072FB681A64FB681B6C03F4805378
:103AB000002B05D1FB681B6C43F00102FB681A6404
:103AC000F868FDF759FE0EE0FB681B6C03F010036D
:103AD000002B03D0F868FFF785FD04E0FB689B6BC3
:103AE000DB6C7868984700BF1037BD4680BD80B555
:103AF00084B000AF78607B689B6BFB60F868FFF771
:103B00005DFD00BF1037BD4680BD80B584B000AFFD
:103B100078607B689B6BFB60FB6840221A64FB68E3
:103B20005B6C43F00402FB685A64F868FFF75AFDC7
:103B300000BF1037BD4680BD80B483B000AF786051
:103B400000BF0C37BD465DF8047B704780B485B07C
:103B500000AF78607B6803F00703FB600C4BDB6809
:103B6000BB60BA684FF6FF031340BB60FB681A02E4
:103B7000BB68134343F0BF6343F40033BB60044AA4
:103B8000BB68D36000BF1437BD465DF8047B704747
:103B900000ED00E080B400AF044BDB681B0A03F0CB
:103BA00007031846BD465DF8047B704700ED00E052
:103BB00080B483B000AF0346FB7197F90730002B48
:103BC0000BDBFB7903F01F02074997F907305B090C
:103BD000012000FA02F241F8232000BF0C37BD4655
:103BE0005DF8047B704700BF00E100E080B483B063
:103BF00000AF03463960FB7197F90730002B0ADBF1
:103C00003B68DAB20C4997F907301201D2B20B4483
:103C100083F800230AE03B68DAB20849FB7903F035
:103C20000F03043B1201D2B20B441A7600BF0C37CB
:103C3000BD465DF8047B704700E100E000ED00E068
:103C400080B489B000AFF860B9607A60FB6803F0B7
:103C50000703FB61FB69C3F10703042B28BF04239F
:103C6000BB61FB690433062B02D9FB69033B00E00F
:103C700000237B614FF0FF32BB6902FA03F3DA43A2
:103C8000BB681A407B699A404FF0FF317B6901FAAB
:103C900003F3D9437B680B40134318462437BD46D2
:103CA0005DF8047B7047000080B582B000AF78609B
:103CB0007B68013BB3F1807F01D301230FE00A4A07
:103CC0007B68013B53600F214FF0FF30FFF78EFF01
:103CD000054B00229A60044B07221A600023184605
:103CE0000837BD4680BD00BF10E000E080B582B05F
:103CF00000AF78607868FFF729FF00BF0837BD463E
:103D000080BD80B586B000AF0346B9607A60FB73B2
:103D100000237B61FFF73EFF78617A68B9687869B4
:103D2000FFF78EFF024697F90F3011461846FFF74E
:103D30005DFF00BF1837BD4680BD80B582B000AFC3
:103D40000346FB7197F907301846FFF731FF00BFB4
:103D50000837BD4680BD80B582B000AF7860786816
:103D6000FFF7A2FF034618460837BD4680BD80B561
:103D700000AFFDF7F7FC00BF80BD000080B586B046
:103D800000AF786000237B61FFF7A2F838617B68A1
:103D9000002B01D1012399E07B68022283F83520B2
:103DA0007B68002283F834207B681B681A687B6874
:103DB0001B6822F001021A600FE0FFF789F8024643
:103DC0003B69D31A052B08D97B6820225A657B688A
:103DD000032283F83520032378E07B681B681B6887
:103DE00003F00103002BE8D17B681B681B687B6133
:103DF0007A69384B13407B617B685A687B689B68A3
:103E00001A437B68DB681A437B681B691A437B682B
:103E10005B691A437B689B691A437B68DB691A43B9
:103E20007B681B6A13437A6913437B617B685B6A17
:103E3000042B07D17B68DA6A7B681B6B13437A69B2
:103E400013437B617B681B687A691A607B681B6817
:103E50005B697B617B6923F007037B617B685B6A3D
:103E60007A6913437B617B685B6A042B17D17B689B
:103E70009B6A7A6913437B617B68DB6A002B0ED0F7
:103E8000786800F001FB0346002B08D07B684022D5
:103E90005A657B68012283F83520012316E07B6890
:103EA0001B687A695A61786800F0B8FA0346FB60CB
:103EB0007B68DB6D3F229A40FB689A607B6800223A
:103EC0005A657B68012283F835200023184618378D
:103ED000BD4680BD3F8010F080B586B000AFF86071
:103EE000B9607A603B600023FB75FB689B6D3B61AA
:103EF000FB6893F83430012B01D1022340E0FB68CA
:103F0000012283F83420FB6893F83530DBB2012BB3
:103F10002FD1FB68022283F83520FB6800225A6506
:103F20003B687A68B968F86800F04AFAFB68DB6DAC
:103F30003F229A403B699A60FB681B681A68FB68DD
:103F40001B6842F016021A60FB681B6C002B07D03E
:103F5000FB681B681A68FB681B6842F008021A605D
:103F6000FB681B681A68FB681B6842F001021A6054
:103F700005E0FB68002283F834200223FB75FB7DFB
:103F800018461837BD4680BD80B584B000AF786054
:103F90007B689B6DFB60FEF79BFFB8607B6893F8C6
:103FA0003530DBB2022B08D07B6880225A657B68F3
:103FB000002283F83420012352E07B681B681A68D2
:103FC0007B681B6822F016021A607B681B685A69BE
:103FD0007B681B6822F080025A617B681B6C002B97
:103FE00003D17B689B6C002B07D07B681B681A6829
:103FF0007B681B6822F008021A607B681B681A68DD
:104000007B681B6822F001021A6013E0FEF760FF74
:104010000246BB68D31A052B0CD97B6820225A654F
:104020007B68032283F835207B68002283F83420E4
:10403000032315E07B681B681B6803F00103002B5A
:10404000E4D17B68DB6D3F229A40FB689A607B6815
:10405000012283F835207B68002283F83420002376
:1040600018461037BD4680BD80B483B000AF78607D
:104070007B6893F83530DBB2022B04D07B6880225A
:104080005A6501230CE07B68052283F835207B68A4
:104090001B681A687B681B6822F001021A60002303
:1040A00018460C37BD465DF8047B704780B586B076
:1040B00000AF78600023BB608E4B1B688E4AA2FB6A
:1040C00003239B0A7B617B689B6D3B613B691B689B
:1040D000FB607B68DB6D08229A40FB681340002B75
:1040E0001AD07B681B681B6803F00403002B13D0F5
:1040F0007B681B681A687B681B6822F004021A60E0
:104100007B68DB6D08229A403B699A607B685B6D37
:1041100043F001027B685A657B68DB6D01229A409F
:10412000FB681340002B12D07B681B685B6903F0AF
:104130008003002B0BD07B68DB6D01229A403B692A
:104140009A607B685B6D43F002027B685A657B680E
:10415000DB6D04229A40FB681340002B12D07B6871
:104160001B681B6803F00203002B0BD07B68DB6D20
:1041700004229A403B699A607B685B6D43F00402BD
:104180007B685A657B68DB6D10229A40FB681340A0
:10419000002B43D07B681B681B6803F00803002BCF
:1041A0003CD07B68DB6D10229A403B699A607B684B
:1041B0001B681B6803F48023002B18D07B681B68E6
:1041C0001B6803F40023002B08D17B681B6C002BB9
:1041D00024D07B681B6C786898471FE07B689B6CD9
:1041E000002B1BD07B689B6C7868984716E07B6837
:1041F0001B681B6803F48073002B07D17B681B6866
:104200001A687B681B6822F008021A607B681B6CC6
:10421000002B03D07B681B6C786898477B68DB6D4C
:1042200020229A40FB681340002B00F08F807B68AF
:104230001B681B6803F01003002B00F087807B686D
:10424000DB6D20229A403B699A607B6893F8353099
:10425000DBB2052B36D17B681B681A687B681B684C
:1042600022F016021A607B681B685A697B681B681B
:1042700022F080025A617B681B6C002B03D17B68A3
:104280009B6C002B07D07B681B681A687B681B68D7
:1042900022F008021A607B68DB6D3F229A403B697E
:1042A0009A607B68012283F835207B68002283F8BE
:1042B00034207B681B6D002B7ED07B681B6D78687B
:1042C000984779E07B681B681B6803F48023002B08
:1042D0001DD07B681B681B6803F40023002B0DD1E5
:1042E0007B685B6C002B31D07B685B6C786898478F
:1042F0002CE000BF00000020B5814E1B7B68DB6B0B
:10430000002B23D07B68DB6B786898471EE07B68C6
:104310001B681B6803F48073002B0FD17B681B683C
:104320001A687B681B6822F010021A607B68012201
:1043300083F835207B68002283F834207B68DB6BB0
:10434000002B03D07B68DB6B786898477B685B6DDC
:10435000002B32D07B685B6D03F00103002B22D071
:104360007B68052283F835207B681B681A687B68A8
:104370001B6822F001021A60BB680133BB607A69D6
:104380009A4207D37B681B681B6803F00103002B6C
:10439000F2D100E000BF7B68012283F835207B6802
:1043A000002283F834207B68DB6C002B05D07B680F
:1043B000DB6C7868984700E000BF1837BD4680BDC9
:1043C00080B485B000AFF860B9607A603B60FB688C
:1043D0001B681A68FB681B6822F480221A60FB685D
:1043E0001B683A685A60FB689B68402B08D1FB68E1
:1043F0001B687A689A60FB681B68BA68DA6007E035
:10440000FB681B68BA689A60FB681B687A68DA60A8
:1044100000BF1437BD465DF8047B704780B485B09B
:1044200000AF78607B681B68DBB2103B144AA2FBCC
:1044300003231B09FB60134AFB6813441B781A46CD
:104440007B68DA65FB68032B09D97B681B6823F45A
:104450007F7323F003031A1D7B689A6507E07B686E
:104460001B6823F47F7323F003037A6893657B68EA
:104470009B6D18461437BD465DF8047B704700BF3E
:10448000ABAAAAAA90BF000880B485B000AF78603C
:104490000023FB737B689B6ABB607B689B69002B76
:1044A0001FD1BB68032B56D801A252F823F000BFDE
:1044B000C1440008D3440008C1440008574500081F
:1044C0007B68DB6A03F08073002B46D00123FB730B
:1044D00043E07B68DB6AB3F1C07F40D10123FB730B
:1044E0003DE07B689B69B3F5005F21D1BB68032B7E
:1044F00037D801A252F823F0094500080F450008FB
:1045000009450008214500080123FB7330E07B6862
:10451000DB6A03F08073002B25D00123FB7322E0BC
:104520007B68DB6AB3F1C07F1FD10123FB731CE002
:10453000BB68022B03D9BB68032B03D018E001230F
:10454000FB7315E07B68DB6A03F08073002B0ED0F1
:104550000123FB730BE000BF0AE000BF08E000BFCF
:1045600006E000BF04E000BF02E000BF00E000BFC3
:10457000FB7B18461437BD465DF8047B704700BFCF
:1045800080B489B000AF7860396000237B6100237C
:104590003B610023BB610023FB616BE10122FB69EE
:1045A00002FA03F37B613B681B687A6913403B6145
:1045B0003A697B699A4240F05A813B685B6803F034
:1045C0000303012B05D03B685B6803F00303022B58
:1045D00030D17B689B68BB61FB695B00032202FAF8
:1045E00003F3DB43BA691340BB613B68DA68FB69DC
:1045F0005B0002FA03F3BA691343BB617B68BA69D3
:104600009A607B685B68BB610122FB6902FA03F375
:10461000DB43BA691340BB613B685B681B0903F06D
:104620000102FB6902FA03F3BA691343BB617B68B9
:10463000BA695A603B685B6803F00303032B17D029
:104640007B68DB68BB61FB695B00032202FA03F352
:10465000DB43BA691340BB613B689A68FB695B0046
:1046600002FA03F3BA691343BB617B68BA69DA6083
:104670003B685B6803F00303022B23D1FB69DA0874
:104680007B68083253F82230BB61FB6903F00703F3
:104690009B000F2202FA03F3DB43BA691340BB61AC
:1046A0003B681A69FB6903F007039B0002FA03F3F6
:1046B000BA691343BB61FB69DA087B680832B969E0
:1046C00043F822107B681B68BB61FB695B00032217
:1046D00002FA03F3DB43BA691340BB613B685B68D2
:1046E00003F00302FB695B0002FA03F3BA691343A8
:1046F000BB617B68BA691A603B685B6803F440334E
:10470000002B00F0B4800023FB60604B5B6C5F4AC1
:1047100043F4804353645D4B5B6C03F48043FB6064
:10472000FB685B4AFB699B08023352F82330BB618C
:10473000FB6903F003039B000F2202FA03F3DB4340
:10474000BA691340BB617B68524A93422BD07B68A5
:10475000514A934225D07B68504A93421FD07B68D0
:104760004F4A934219D07B684E4A934213D07B68DC
:104770004D4A93420DD07B684C4A934207D07B68E8
:104780004B4A934201D107230EE008230CE0062395
:104790000AE0052308E0042306E0032304E00223E3
:1047A00002E0012300E00023FA6902F00302920014
:1047B0009340BA691343BB613549FB699B080233D7
:1047C000BA6941F823203B4B9B68BB613B69DB43E3
:1047D000BA691340BB613B685B6803F48013002B2C
:1047E00003D0BA693B691343BB61324ABB6993602A
:1047F000304BDB68BB613B69DB43BA691340BB618B
:104800003B685B6803F40013002B03D0BA693B6973
:104810001343BB61274ABB69D360264B5B68BB610E
:104820003B69DB43BA691340BB613B685B6803F4D7
:104830000033002B03D0BA693B691343BB611D4AA7
:10484000BB6953601B4B1B68BB613B69DB43BA69A7
:104850001340BB613B685B6803F48033002B03D0DB
:10486000BA693B691343BB61124ABB691360FB69B8
:104870000133FB61FB690F2B7FF690AE00BF00BFD9
:104880002437BD465DF8047B704700BF0038024006
:1048900000380140000002400004024000080240CD
:1048A000000C0240001002400014024000180240B8
:1048B000001C0240003C014080B483B000AF78602F
:1048C0000B467B8013467B707B78002B03D07A8865
:1048D0007B689A6103E07B881A047B689A6100BF59
:1048E0000C37BD465DF8047B704780B485B000AFDF
:1048F00078600B467B807B685B69FB607A88FB682D
:1049000013401A04FB68D9437B880B401A437B6829
:104910009A6100BF1437BD465DF8047B7047000004
:1049200080B582B000AF0346FB80084B5A69FB8814
:104930001340002B06D0054AFB885361FB881846BC
:10494000FCF72CFE00BF0837BD4680BD003C01408F
:1049500080B584B000AF78607B68002B01D1012363
:104960002BE17B6893F83D30DBB2002B06D17B68EE
:10497000002283F83C207868FCF766FC7B682422E0
:1049800083F83D207B681B681A687B681B6822F0EF
:1049900001021A607B681B681A687B681B6842F416
:1049A00000421A607B681B681A687B681B6822F4E7
:1049B00000421A6001F0AAF8F8607B685B68814ADF
:1049C000934207D8FB68804A934294BF0123002397
:1049D000DBB206E0FB687D4A934294BF01230023CB
:1049E000DBB2002B01D00123E7E0FB68784AA2FB91
:1049F00003239B0CBB607B681B685B6823F03F0153
:104A00007B681B68BA680A435A607B681B681B6A2C
:104A100023F03F017B685B686A4A934202D8BB6817
:104A2000013309E0BB684FF4967202FB03F3694A55
:104A3000A2FB03239B0901337A6812680B431362BC
:104A40007B681B68DB6923F44F4222F0FF027B681E
:104A50005B685C498B4219D8FB68591E7B685B68B0
:104A60005B00B1FBF3F3591C40F6FC730B40002BC9
:104A70000AD0FB68591E7B685B685B00B1FBF3F3EF
:104A80000133C3F30B0351E004234FE07B689B68C1
:104A9000002B11D1FB68581E7B6859680B465B00E0
:104AA0000B44B0FBF3F30133C3F30B03002B0CBF38
:104AB00001230023DBB212E0FB68581E7B685968B3
:104AC0000B469B000B4499000B44B0FBF3F30133FE
:104AD000C3F30B03002B0CBF01230023DBB2002B1D
:104AE00001D0012322E07B689B68002B0ED1FB687C
:104AF000581E7B6859680B465B000B44B0FBF3F310
:104B00000133C3F30B0343F400430FE0FB68581E6B
:104B10007B6859680B469B000B4499000B44B0FB23
:104B2000F3F30133C3F30B0343F44043796809689B
:104B30001343CB617B681B681B6823F0C0017B6853
:104B4000DA697B681B6A1A437B681B680A431A6030
:104B50007B681B689B6823F4034323F0FF037A6898
:104B600011697A68D26811437A6812680B439360BE
:104B70007B681B68DB6823F0FF017B685A697B68F0
:104B80009B691A437B681B680A43DA607B681B6871
:104B90001A687B681B6842F001021A607B68002279
:104BA0001A647B68202283F83D207B6800221A6308
:104BB0007B68002283F83E20002318461037BD464C
:104BC00080BD00BFA08601007F841E00FF083D005D
:104BD00083DE1B43D34D621080B588B002AFF8600E
:104BE000084611461A4603467B810B463B81134615
:104BF000FB80FEF76DF97861FB6893F83D30DBB21E
:104C0000202B40F0D9807B690093192301226D4944
:104C1000F86800F071F90346002B01D00223CCE0C4
:104C2000FB6893F83C30012B01D10223C5E0FB68FF
:104C3000012283F83C20FB681B681B6803F001031A
:104C4000012B07D0FB681B681A68FB681B6842F0E1
:104C500001021A60FB681B681A68FB681B6822F473
:104C600000621A60FB68212283F83D20FB68402225
:104C700083F83E20FB6800221A64FB683A6A5A6295
:104C8000FB68BA8C5A85FB685B8D9AB2FB681A8503
:104C9000FB684D4ADA62F8883A8979897B69019321
:104CA000BB6A00930346F86800F090F80346002BB7
:104CB00052D0012381E07A69B96AF86800F036FAC7
:104CC0000346002B0DD0FB681B6C042B07D1FB683F
:104CD0001B681A68FB681B6842F400721A600123A3
:104CE0006BE0FB685B6A1A78FB681B681A61FB68FB
:104CF0005B6A5A1CFB685A62FB681B8D013B9AB2C7
:104D0000FB681A85FB685B8D9BB2013B9AB2FB681E
:104D10005A85FB681B685B6903F00403042B1BD1F5
:104D2000FB681B8D002B17D0FB685B6A1A78FB6849
:104D30001B681A61FB685B6A5A1CFB685A62FB6855
:104D40001B8D013B9AB2FB681A85FB685B8D9BB299
:104D5000013B9AB2FB685A85FB681B8D002BAAD1D8
:104D60007A69B96AF86800F029FA0346002B0DD079
:104D7000FB681B6C042B07D1FB681B681A68FB6877
:104D80001B6842F400721A60012316E0FB681B687E
:104D90001A68FB681B6842F400721A60FB682022E4
:104DA00083F83D20FB68002283F83E20FB68002248
:104DB00083F83C20002300E0022318461837BD4644
:104DC00080BD00BF020010000000FFFF80B588B06A
:104DD00002AFF860084611461A4603467B810B462F
:104DE0003B811346FB80FB681B681A68FB681B68E5
:104DF00042F480721A607B6A00933B6A00224FF093
:104E00000111F86800F078F80346002B0DD0FB681C
:104E10001B681B6803F48073B3F5807F03D1FB68C4
:104E20004FF400721A6403235FE07B89DBB21A46F9
:104E3000FB681B6802F0FE021A617B6A3A6A2D4920
:104E4000F86800F0D3F80346002B01D001234CE0B2
:104E500000237B61FB681B685B697B61FB681B68E7
:104E60009B697B617B697A6A396AF86800F05EF950
:104E70000346002B0DD0FB681B6C042B07D1FB688D
:104E80001B681A68FB681B6842F400721A600123F1
:104E90002BE0FB88012B05D13B89DAB2FB681B684C
:104EA0001A6121E03B891B0A9BB2DAB2FB681B68DE
:104EB0001A617A6A396AF86800F038F90346002BFB
:104EC0000DD0FB681B6C042B07D1FB681B681A68AC
:104ED000FB681B6842F400721A60012305E03B89FD
:104EE000DAB2FB681B681A61002318461837BD4602
:104EF00080BD00BF0200010080B584B000AFF86043
:104F0000B9603B601346FB7148E03B68B3F1FF3F7B
:104F100044D0FDF7DDFF0246BB69D31A3A689A42D6
:104F200002D33B68002B39D1BB681B0CDBB2012BD1
:104F30000DD1FB681B685B69DA43BB6813409BB209
:104F4000002B0CBF01230023DBB21A460CE0FB68E8
:104F50001B689B69DA43BB6813409BB2002B0CBFF4
:104F600001230023DBB21A46FB799A4216D1FB6873
:104F700000221A63FB68202283F83D20FB68002290
:104F800083F83E20FB681B6C43F02002FB681A6428
:104F9000FB68002283F83C20012323E0BB681B0C44
:104FA000DBB2012B0DD1FB681B685B69DA43BB6880
:104FB00013409BB2002B0CBF01230023DBB21A4627
:104FC0000CE0FB681B689B69DA43BB6813409BB22B
:104FD000002B0CBF01230023DBB21A46FB799A4257
:104FE00093D0002318461037BD4680BD80B584B0ED
:104FF00000AFF860B9607A603B6071E0FB681B68E5
:105000005B6903F48063B3F5806F23D1FB681B6891
:105010001A68FB681B6842F400721A60FB681B6820
:105020006FF480625A61FB6800221A63FB682022D9
:1050300083F83D20FB68002283F83E20FB681B6C50
:1050400043F00402FB681A64FB68002283F83C20EA
:10505000012367E07B68B3F1FF3F41D0FDF738FFE4
:1050600002463B68D31A7A689A4202D37B68002BC7
:1050700036D1BB681B0CDBB2012B0CD1FB681B6863
:105080005B69DA43BB6813409BB2002B14BF01235A
:105090000023DBB20BE0FB681B689B69DA43BB684B
:1050A00013409BB2002B14BF01230023DBB2002B63
:1050B00016D0FB6800221A63FB68202283F83D208B
:1050C000FB68002283F83E20FB681B6C43F0200243
:1050D000FB681A64FB68002283F83C20012321E06E
:1050E000BB681B0CDBB2012B0CD1FB681B685B6936
:1050F000DA43BB6813409BB2002B14BF012300238B
:10510000DBB20BE0FB681B689B69DA43BB681340AA
:105110009BB2002B14BF01230023DBB2002B7FF4D2
:105120006DAF002318461037BD4680BD80B584B0F2
:1051300000AFF860B9607A6034E0F86800F086F893
:105140000346002B01D0012334E0BB68B3F1FF3FDD
:1051500028D0FDF7BDFE02467B68D31ABA689A4292
:1051600002D3BB68002B1DD1FB681B685B6903F091
:105170008003802B16D0FB6800221A63FB68202274
:1051800083F83D20FB68002283F83E20FB681B6CFF
:1051900043F02002FB681A64FB68002283F83C207D
:1051A000012307E0FB681B685B6903F08003802B29
:1051B000C3D1002318461037BD4680BD80B584B0EA
:1051C00000AFF860B9607A6034E0F86800F03EF84B
:1051D0000346002B01D0012334E0BB68B3F1FF3F4D
:1051E00028D0FDF775FE02467B68D31ABA689A424A
:1051F00002D3BB68002B1DD1FB681B685B6903F001
:105200000403042B16D0FB6800221A63FB682022DB
:1052100083F83D20FB68002283F83E20FB681B6C6E
:1052200043F02002FB681A64FB68002283F83C20EC
:10523000012307E0FB681B685B6903F00403042B90
:10524000C3D1002318461037BD4680BD80B483B05B
:1052500000AF78607B681B685B6903F48063B3F51B
:10526000806F1BD17B681B686FF480625A617B681A
:1052700000221A637B68202283F83D207B6800228D
:1052800083F83E207B681B6C43F004027B681A6441
:105290007B68002283F83C20012300E000231846AD
:1052A0000C37BD465DF8047B7047000080B586B0C2
:1052B00000AF78607B68002B01D1012367E27B6837
:1052C0001B6803F00103002B75D0884B9B6803F02B
:1052D0000C03042B0CD0854B9B6803F00C03082BAC
:1052E00012D1824B5B6803F48003B3F5800F0BD1BE
:1052F0007E4B1B6803F40033002B5BD07B685B683C
:10530000002B57D1012342E27B685B68B3F5803FF5
:1053100006D1764B1B68754A43F4803313601DE059
:105320007B685B68B3F5A02F0CD1704B1B686F4A8C
:1053300043F4802313606D4B1B686C4A43F4803345
:1053400013600BE0694B1B68684A23F480331360D9
:10535000664B1B68654A23F4802313607B685B6897
:10536000002B13D0FDF7B4FD386108E0FDF7B0FD68
:1053700002463B69D31A642B01D9032307E25B4B36
:105380001B6803F40033002BF0D014E0FDF7A0FD00
:10539000386108E0FDF79CFD02463B69D31A642B97
:1053A00001D90323F3E1514B1B6803F40033002BB5
:1053B000F0D100E000BF7B681B6803F00203002B04
:1053C00063D04A4B9B6803F00C03002B0BD0474B78
:1053D0009B6803F00C03082B1CD1444B5B6803F45F
:1053E0008003002B16D1414B1B6803F00203002BF6
:1053F00005D07B68DB68012B01D00123C7E13B4B63
:105400001B6823F0F8027B681B69DB0037491343F4
:105410000B603AE07B68DB68002B20D0344B012224
:105420001A60FDF755FD386108E0FDF751FD0246B1
:105430003B69D31A022B01D90323A8E12B4B1B682C
:1054400003F00203002BF0D0284B1B6823F0F80276
:105450007B681B69DB00254913430B6015E0244B77
:1054600000221A60FDF734FD386108E0FDF730FDD9
:1054700002463B69D31A022B01D9032387E11B4B58
:105480001B6803F00203002BF0D17B681B6803F05C
:105490000803002B36D07B685B69002B16D0154BB8
:1054A00001221A60FDF714FD386108E0FDF710FDD8
:1054B00002463B69D31A022B01D9032367E10B4B48
:1054C0005B6F03F00203002BF0D01BE0094B0022BE
:1054D0001A60FDF7FDFC38610EE0FDF7F9FC0246AD
:1054E0003B69D31A022B07D9032350E1003802404D
:1054F00000004742800E4742884B5B6F03F0020377
:10550000002BEAD17B681B6803F00403002B00F03A
:1055100097800023FB75814B1B6C03F08053002B9D
:105520000FD10023BB607D4B1B6C7C4A43F0805342
:1055300013647A4B1B6C03F08053BB60BB68012380
:10554000FB75774B1B6803F48073002B18D1744BE9
:105550001B68734A43F480731360FDF7B9FC38612C
:1055600008E0FDF7B5FC02463B69D31A022B01D9CE
:1055700003230CE16A4B1B6803F48073002BF0D00B
:105580007B689B68012B06D1644B1B6F634A43F019
:10559000010313671CE07B689B68052B0CD15F4BF4
:1055A0001B6F5E4A43F0040313675C4B1B6F5B4A3F
:1055B00043F0010313670BE0584B1B6F574A23F06E
:1055C00001031367554B1B6F544A23F00403136701
:1055D0007B689B68002B15D0FDF77AFC38610AE0E8
:1055E000FDF776FC02463B69D31A41F288329342BA
:1055F00001D90323CBE0494B1B6F03F00203002BBF
:10560000EED014E0FDF764FC38610AE0FDF760FCC1
:1056100002463B69D31A41F28832934201D90323EF
:10562000B5E03E4B1B6F03F00203002BEED1FB7D78
:10563000012B05D1394B1B6C384A23F0805313647E
:105640007B689B69002B00F0A180344B9B6803F0C2
:105650000C03082B5CD07B689B69022B41D1314B3A
:1056600000221A60FDF734FC386108E0FDF730FCD9
:1056700002463B69D31A022B01D9032387E0274B4B
:105680001B6803F00073002BF0D17B68DA697B683C
:105690001B6A1A437B685B6A9B011A437B689B6A9F
:1056A0005B08013B1B041A437B68DB6A1B061B4932
:1056B00013434B601B4B01221A60FDF709FC386154
:1056C00008E0FDF705FC02463B69D31A022B01D91D
:1056D00003235CE0114B1B6803F00073002BF0D038
:1056E00054E0104B00221A60FDF7F2FB386108E02D
:1056F000FDF7EEFB02463B69D31A022B01D90323C7
:1057000045E0064B1B6803F00073002BF0D13DE031
:105710007B689B69012B07D1012338E000380240E8
:1057200000700040600047421B4B5B68FB607B6879
:105730009B69012B28D0FB6803F480027B68DB693E
:105740009A4221D1FB6803F03F027B681B6A9A42B0
:105750001AD1FA6847F6C07313407A68526A920108
:10576000934211D1FB6803F440327B689B6A5B086B
:10577000013B1B049A4207D1FB6803F070627B680F
:10578000DB6A1B069A4201D0012300E00023184681
:105790001837BD4680BD00BF0038024080B584B0D8
:1057A00000AF786039607B68002B01D10123CCE029
:1057B000684B1B6803F007033A689A420CD9654BA3
:1057C0003A68D2B21A70634B1B6803F007033A6859
:1057D0009A4201D00123B8E07B681B6803F0020302
:1057E000002B20D07B681B6803F00403002B05D03E
:1057F000594B9B68584A43F4E05393607B681B689D
:1058000003F00803002B05D0534B9B68524A43F426
:1058100060439360504B9B6823F0F0027B689B6869
:105820004D4913438B607B681B6803F00103002B19
:1058300044D07B685B68012B07D1474B1B6803F49E
:105840000033002B19D101237FE07B685B68022BBA
:1058500003D07B685B68032B07D13F4B1B6803F0C9
:105860000073002B09D101236FE03B4B1B6803F051
:105870000203002B01D1012367E0374B9B6823F023
:1058800003027B685B68344913438B60FDF720FBA0
:10589000F8600AE0FDF71CFB0246FB68D31A41F2F0
:1058A0008832934201D903234FE02B4B9B6803F0CE
:1058B0000C027B685B689B009A42EBD1254B1B680E
:1058C00003F007033A689A420CD2224B3A68D2B2EC
:1058D0001A70204B1B6803F007033A689A4201D004
:1058E000012332E07B681B6803F00403002B08D01F
:1058F000194B9B6823F4E0527B68DB68164913431D
:105900008B607B681B6803F00803002B09D0124BE7
:105910009B6823F460427B681B69DB000E491343DC
:105920008B6000F021F802460B4B9B681B0903F0CB
:105930000F030A49CB5C22FA03F3094A1360094BAF
:105940001B681846FDF780FA002318461037BD463D
:1059500080BD00BF003C02400038024078BF000814
:1059600000000020040000202DE9B04F90B000AFEF
:1059700000237B630023FB6300233B630023BB63A3
:10598000594B9B6803F00C03082B0DD0082B00F239
:10599000A180002B02D0042B03D09BE0534BBB63B0
:1059A0009BE0534BBB6398E04F4B5B6803F03F03B6
:1059B0007B634D4B5B6803F48003002B28D04A4B7C
:1059C0005B689B0900223B627A623B6AC3F3080072
:1059D0000021474B03FB01F2002300FB03F31344B8
:1059E000434AA0FB0212FA620A46BA62FA6A1344F8
:1059F000FB627B6B0022BB61FA61D7E90623D7E922
:105A00000A01FBF7D1F802460B461346FB6353E04D
:105A1000354B5B689B0900223B617A613B69C3F3AC
:105A2000080A4FF0000B52465B464FF000004FF063
:105A30000001590141EAD261500102460B46B2EB26
:105A40000A0863EB0B094FF000024FF000034FEA26
:105A5000891343EA98634FEA8812B2EB080463EBB8
:105A600009054FF000024FF00003EB0043EA5473C6
:105A7000E20014461D4614EB0A033B6045EB0B03A2
:105A80007B604FF000024FF00003D7E90045294644
:105A90008B02214643EA915321468A021046194659
:105AA0007B6B0022BB60FA60D7E90223FBF77CF82E
:105AB00002460B461346FB630B4B5B681B0C03F063
:105AC000030301335B003B63FA6B3B6BB2FBF3F305
:105AD000BB6302E0054BBB6300BFBB6B184640379E
